{
  "contractName": "CappedCrowdsaleImpl",
  "abi": [
    {
      "inputs": [
        {
          "internalType": "uint256",
          "name": "rate",
          "type": "uint256"
        },
        {
          "internalType": "address payable",
          "name": "wallet",
          "type": "address"
        },
        {
          "internalType": "contract IERC20",
          "name": "token",
          "type": "address"
        },
        {
          "internalType": "uint256",
          "name": "cap",
          "type": "uint256"
        }
      ],
      "payable": false,
      "stateMutability": "nonpayable",
      "type": "constructor"
    },
    {
      "anonymous": false,
      "inputs": [
        {
          "indexed": true,
          "internalType": "address",
          "name": "purchaser",
          "type": "address"
        },
        {
          "indexed": true,
          "internalType": "address",
          "name": "beneficiary",
          "type": "address"
        },
        {
          "indexed": false,
          "internalType": "uint256",
          "name": "value",
          "type": "uint256"
        },
        {
          "indexed": false,
          "internalType": "uint256",
          "name": "amount",
          "type": "uint256"
        }
      ],
      "name": "TokensPurchased",
      "type": "event"
    },
    {
      "payable": true,
      "stateMutability": "payable",
      "type": "fallback"
    },
    {
      "constant": false,
      "inputs": [
        {
          "internalType": "address",
          "name": "beneficiary",
          "type": "address"
        }
      ],
      "name": "buyTokens",
      "outputs": [],
      "payable": true,
      "stateMutability": "payable",
      "type": "function"
    },
    {
      "constant": true,
      "inputs": [],
      "name": "cap",
      "outputs": [
        {
          "internalType": "uint256",
          "name": "",
          "type": "uint256"
        }
      ],
      "payable": false,
      "stateMutability": "view",
      "type": "function"
    },
    {
      "constant": true,
      "inputs": [],
      "name": "capReached",
      "outputs": [
        {
          "internalType": "bool",
          "name": "",
          "type": "bool"
        }
      ],
      "payable": false,
      "stateMutability": "view",
      "type": "function"
    },
    {
      "constant": true,
      "inputs": [],
      "name": "rate",
      "outputs": [
        {
          "internalType": "uint256",
          "name": "",
          "type": "uint256"
        }
      ],
      "payable": false,
      "stateMutability": "view",
      "type": "function"
    },
    {
      "constant": true,
      "inputs": [],
      "name": "token",
      "outputs": [
        {
          "internalType": "contract IERC20",
          "name": "",
          "type": "address"
        }
      ],
      "payable": false,
      "stateMutability": "view",
      "type": "function"
    },
    {
      "constant": true,
      "inputs": [],
      "name": "wallet",
      "outputs": [
        {
          "internalType": "address payable",
          "name": "",
          "type": "address"
        }
      ],
      "payable": false,
      "stateMutability": "view",
      "type": "function"
    },
    {
      "constant": true,
      "inputs": [],
      "name": "weiRaised",
      "outputs": [
        {
          "internalType": "uint256",
          "name": "",
          "type": "uint256"
        }
      ],
      "payable": false,
      "stateMutability": "view",
      "type": "function"
    }
  ],
  "bytecode": "0x608060405234801561001057600080fd5b50604051610f23380380610f238339818101604052608081101561003357600080fd5b8101908080519060200190929190805190602001909291908051906020019092919080519060200190929190505050808484846001600081905550600083116100e4576040517f08c379a00000000000000000000000000000000000000000000000000000000081526004018080602001828103825260148152602001807f43726f776473616c653a2072617465206973203000000000000000000000000081525060200191505060405180910390fd5b600073ffffffffffffffffffffffffffffffffffffffff168273ffffffffffffffffffffffffffffffffffffffff16141561016a576040517f08c379a0000000000000000000000000000000000000000000000000000000008152600401808060200182810382526025815260200180610efe6025913960400191505060405180910390fd5b600073ffffffffffffffffffffffffffffffffffffffff168173ffffffffffffffffffffffffffffffffffffffff1614156101f0576040517f08c379a0000000000000000000000000000000000000000000000000000000008152600401808060200182810382526024815260200180610eda6024913960400191505060405180910390fd5b8260038190555081600260006101000a81548173ffffffffffffffffffffffffffffffffffffffff021916908373ffffffffffffffffffffffffffffffffffffffff16021790555080600160006101000a81548173ffffffffffffffffffffffffffffffffffffffff021916908373ffffffffffffffffffffffffffffffffffffffff160217905550505050600081116102f2576040517f08c379a00000000000000000000000000000000000000000000000000000000081526004018080602001828103825260198152602001807f43617070656443726f776473616c653a2063617020697320300000000000000081525060200191505060405180910390fd5b806005819055505050505050610bcd8061030d6000396000f3fe6080604052600436106100705760003560e01c80634f9359451161004e5780634f93594514610103578063521eb27314610132578063ec8ac4d814610189578063fc0c546a146101cd57610070565b80632c4e722e14610082578063355274ea146100ad5780634042b66f146100d8575b61008061007b610224565b61022c565b005b34801561008e57600080fd5b50610097610398565b6040518082815260200191505060405180910390f35b3480156100b957600080fd5b506100c26103a2565b6040518082815260200191505060405180910390f35b3480156100e457600080fd5b506100ed6103ac565b6040518082815260200191505060405180910390f35b34801561010f57600080fd5b506101186103b6565b604051808215151515815260200191505060405180910390f35b34801561013e57600080fd5b506101476103ca565b604051808273ffffffffffffffffffffffffffffffffffffffff1673ffffffffffffffffffffffffffffffffffffffff16815260200191505060405180910390f35b6101cb6004803603602081101561019f57600080fd5b81019080803573ffffffffffffffffffffffffffffffffffffffff16906020019092919050505061022c565b005b3480156101d957600080fd5b506101e26103f4565b604051808273ffffffffffffffffffffffffffffffffffffffff1673ffffffffffffffffffffffffffffffffffffffff16815260200191505060405180910390f35b600033905090565b600160008082825401925050819055506000805490506000349050610251838261041e565b600061025c826104bd565b9050610273826004546104db90919063ffffffff16565b6004819055506102838482610563565b8373ffffffffffffffffffffffffffffffffffffffff166102a2610224565b73ffffffffffffffffffffffffffffffffffffffff167f6faf93231a456e552dbc9961f58d9713ee4f2e69d15f1975b050ef0911053a7b8484604051808381526020018281526020019250505060405180910390a36103018483610571565b610309610575565b61031384836105e0565b5050600054811461038c576040517f08c379a000000000000000000000000000000000000000000000000000000000815260040180806020018281038252601f8152602001807f5265656e7472616e637947756172643a207265656e7472616e742063616c6c0081525060200191505060405180910390fd5b60016000819055505050565b6000600354905090565b6000600554905090565b6000600454905090565b60006005546103c36103ac565b1015905090565b6000600260009054906101000a900473ffffffffffffffffffffffffffffffffffffffff16905090565b6000600160009054906101000a900473ffffffffffffffffffffffffffffffffffffffff16905090565b61042882826105e4565b600554610445826104376103ac565b6104db90919063ffffffff16565b11156104b9576040517f08c379a000000000000000000000000000000000000000000000000000000000815260040180806020018281038252601d8152602001807f43617070656443726f776473616c653a2063617020657863656564656400000081525060200191505060405180910390fd5b5050565b60006104d4600354836106e590919063ffffffff16565b9050919050565b600080828401905083811015610559576040517f08c379a000000000000000000000000000000000000000000000000000000000815260040180806020018281038252601b8152602001807f536166654d6174683a206164646974696f6e206f766572666c6f77000000000081525060200191505060405180910390fd5b8091505092915050565b61056d828261076b565b5050565b5050565b600260009054906101000a900473ffffffffffffffffffffffffffffffffffffffff1673ffffffffffffffffffffffffffffffffffffffff166108fc349081150290604051600060405180830381858888f193505050501580156105dd573d6000803e3d6000fd5b50565b5050565b600073ffffffffffffffffffffffffffffffffffffffff168273ffffffffffffffffffffffffffffffffffffffff16141561066a576040517f08c379a000000000000000000000000000000000000000000000000000000000815260040180806020018281038252602a815260200180610b45602a913960400191505060405180910390fd5b60008114156106e1576040517f08c379a00000000000000000000000000000000000000000000000000000000081526004018080602001828103825260198152602001807f43726f776473616c653a20776569416d6f756e7420697320300000000000000081525060200191505060405180910390fd5b5050565b6000808314156106f85760009050610765565b600082840290508284828161070957fe5b0414610760576040517f08c379a0000000000000000000000000000000000000000000000000000000008152600401808060200182810382526021815260200180610b246021913960400191505060405180910390fd5b809150505b92915050565b6107b88282600160009054906101000a900473ffffffffffffffffffffffffffffffffffffffff1673ffffffffffffffffffffffffffffffffffffffff166107bc9092919063ffffffff16565b5050565b610888838473ffffffffffffffffffffffffffffffffffffffff1663a9059cbb905060e01b8484604051602401808373ffffffffffffffffffffffffffffffffffffffff1673ffffffffffffffffffffffffffffffffffffffff16815260200182815260200192505050604051602081830303815290604052907bffffffffffffffffffffffffffffffffffffffffffffffffffffffff19166020820180517bffffffffffffffffffffffffffffffffffffffffffffffffffffffff838183161783525050505061088d565b505050565b6108ac8273ffffffffffffffffffffffffffffffffffffffff16610ad8565b61091e576040517f08c379a000000000000000000000000000000000000000000000000000000000815260040180806020018281038252601f8152602001807f5361666545524332303a2063616c6c20746f206e6f6e2d636f6e74726163740081525060200191505060405180910390fd5b600060608373ffffffffffffffffffffffffffffffffffffffff16836040518082805190602001908083835b6020831061096d578051825260208201915060208101905060208303925061094a565b6001836020036101000a0380198251168184511680821785525050505050509050019150506000604051808303816000865af19150503d80600081146109cf576040519150601f19603f3d011682016040523d82523d6000602084013e6109d4565b606091505b509150915081610a4c576040517f08c379a00000000000000000000000000000000000000000000000000000000081526004018080602001828103825260208152602001807f5361666545524332303a206c6f772d6c6576656c2063616c6c206661696c656481525060200191505060405180910390fd5b600081511115610ad257808060200190516020811015610a6b57600080fd5b8101908080519060200190929190505050610ad1576040517f08c379a000000000000000000000000000000000000000000000000000000000815260040180806020018281038252602a815260200180610b6f602a913960400191505060405180910390fd5b5b50505050565b60008060007fc5d2460186f7233c927e7db2dcc703c0e500b653ca82273b7bfad8045d85a47060001b9050833f91506000801b8214158015610b1a5750808214155b9250505091905056fe536166654d6174683a206d756c7469706c69636174696f6e206f766572666c6f7743726f776473616c653a2062656e656669636961727920697320746865207a65726f20616464726573735361666545524332303a204552433230206f7065726174696f6e20646964206e6f742073756363656564a265627a7a72315820187f0d3d48c9a87bac01cb662381b4a9d83fa86da7bc662d0713b26fc867d08864736f6c634300050c003243726f776473616c653a20746f6b656e20697320746865207a65726f206164647265737343726f776473616c653a2077616c6c657420697320746865207a65726f2061646472657373",
  "source": "pragma solidity ^0.5.0;\n\nimport \"../token/ERC20/IERC20.sol\";\nimport \"../crowdsale/validation/CappedCrowdsale.sol\";\n\ncontract CappedCrowdsaleImpl is CappedCrowdsale {\n    constructor (uint256 rate, address payable wallet, IERC20 token, uint256 cap)\n        public\n        Crowdsale(rate, wallet, token)\n        CappedCrowdsale(cap)\n    {\n        // solhint-disable-previous-line no-empty-blocks\n    }\n}\n",
  "sourcePath": "C:/Users/kev-y/OneDrive - De Vinci/ESILV/A5/Monnaies Numériques/ERC20/contracts/openzeppelin/contracts/mocks/CappedCrowdsaleImpl.sol",
  "compiler": {
    "name": "solc",
    "version": "0.5.12+commit.7709ece9.Emscripten.clang"
  },
  "schemaVersion": "3.0.19",
  "updatedAt": "2019-11-20T11:24:44.730Z",
  "devdoc": {
    "methods": {
      "buyTokens(address)": {
        "details": "low level token purchase ***DO NOT OVERRIDE*** This function has a non-reentrancy guard, so it shouldn't be called by another `nonReentrant` function.",
        "params": {
          "beneficiary": "Recipient of the token purchase"
        }
      },
      "cap()": {
        "return": "the cap of the crowdsale."
      },
      "capReached()": {
        "details": "Checks whether the cap has been reached.",
        "return": "Whether the cap was reached"
      },
      "rate()": {
        "return": "the number of token units a buyer gets per wei."
      },
      "token()": {
        "return": "the token being sold."
      },
      "wallet()": {
        "return": "the address where funds are collected."
      },
      "weiRaised()": {
        "return": "the amount of wei raised."
      }
    }
  },
  "userdoc": {
    "methods": {}
  }
}