{
  "contractName": "ERC721FullMock",
  "abi": [
    {
      "inputs": [
        {
          "internalType": "string",
          "name": "name",
          "type": "string"
        },
        {
          "internalType": "string",
          "name": "symbol",
          "type": "string"
        }
      ],
      "payable": false,
      "stateMutability": "nonpayable",
      "type": "constructor"
    },
    {
      "anonymous": false,
      "inputs": [
        {
          "indexed": true,
          "internalType": "address",
          "name": "owner",
          "type": "address"
        },
        {
          "indexed": true,
          "internalType": "address",
          "name": "approved",
          "type": "address"
        },
        {
          "indexed": true,
          "internalType": "uint256",
          "name": "tokenId",
          "type": "uint256"
        }
      ],
      "name": "Approval",
      "type": "event"
    },
    {
      "anonymous": false,
      "inputs": [
        {
          "indexed": true,
          "internalType": "address",
          "name": "owner",
          "type": "address"
        },
        {
          "indexed": true,
          "internalType": "address",
          "name": "operator",
          "type": "address"
        },
        {
          "indexed": false,
          "internalType": "bool",
          "name": "approved",
          "type": "bool"
        }
      ],
      "name": "ApprovalForAll",
      "type": "event"
    },
    {
      "anonymous": false,
      "inputs": [
        {
          "indexed": true,
          "internalType": "address",
          "name": "account",
          "type": "address"
        }
      ],
      "name": "MinterAdded",
      "type": "event"
    },
    {
      "anonymous": false,
      "inputs": [
        {
          "indexed": true,
          "internalType": "address",
          "name": "account",
          "type": "address"
        }
      ],
      "name": "MinterRemoved",
      "type": "event"
    },
    {
      "anonymous": false,
      "inputs": [
        {
          "indexed": true,
          "internalType": "address",
          "name": "from",
          "type": "address"
        },
        {
          "indexed": true,
          "internalType": "address",
          "name": "to",
          "type": "address"
        },
        {
          "indexed": true,
          "internalType": "uint256",
          "name": "tokenId",
          "type": "uint256"
        }
      ],
      "name": "Transfer",
      "type": "event"
    },
    {
      "constant": false,
      "inputs": [
        {
          "internalType": "address",
          "name": "account",
          "type": "address"
        }
      ],
      "name": "addMinter",
      "outputs": [],
      "payable": false,
      "stateMutability": "nonpayable",
      "type": "function"
    },
    {
      "constant": false,
      "inputs": [
        {
          "internalType": "address",
          "name": "to",
          "type": "address"
        },
        {
          "internalType": "uint256",
          "name": "tokenId",
          "type": "uint256"
        }
      ],
      "name": "approve",
      "outputs": [],
      "payable": false,
      "stateMutability": "nonpayable",
      "type": "function"
    },
    {
      "constant": true,
      "inputs": [
        {
          "internalType": "address",
          "name": "owner",
          "type": "address"
        }
      ],
      "name": "balanceOf",
      "outputs": [
        {
          "internalType": "uint256",
          "name": "",
          "type": "uint256"
        }
      ],
      "payable": false,
      "stateMutability": "view",
      "type": "function"
    },
    {
      "constant": true,
      "inputs": [],
      "name": "baseURI",
      "outputs": [
        {
          "internalType": "string",
          "name": "",
          "type": "string"
        }
      ],
      "payable": false,
      "stateMutability": "view",
      "type": "function"
    },
    {
      "constant": false,
      "inputs": [
        {
          "internalType": "uint256",
          "name": "tokenId",
          "type": "uint256"
        }
      ],
      "name": "burn",
      "outputs": [],
      "payable": false,
      "stateMutability": "nonpayable",
      "type": "function"
    },
    {
      "constant": true,
      "inputs": [
        {
          "internalType": "uint256",
          "name": "tokenId",
          "type": "uint256"
        }
      ],
      "name": "getApproved",
      "outputs": [
        {
          "internalType": "address",
          "name": "",
          "type": "address"
        }
      ],
      "payable": false,
      "stateMutability": "view",
      "type": "function"
    },
    {
      "constant": true,
      "inputs": [
        {
          "internalType": "address",
          "name": "owner",
          "type": "address"
        },
        {
          "internalType": "address",
          "name": "operator",
          "type": "address"
        }
      ],
      "name": "isApprovedForAll",
      "outputs": [
        {
          "internalType": "bool",
          "name": "",
          "type": "bool"
        }
      ],
      "payable": false,
      "stateMutability": "view",
      "type": "function"
    },
    {
      "constant": true,
      "inputs": [
        {
          "internalType": "address",
          "name": "account",
          "type": "address"
        }
      ],
      "name": "isMinter",
      "outputs": [
        {
          "internalType": "bool",
          "name": "",
          "type": "bool"
        }
      ],
      "payable": false,
      "stateMutability": "view",
      "type": "function"
    },
    {
      "constant": false,
      "inputs": [
        {
          "internalType": "address",
          "name": "to",
          "type": "address"
        },
        {
          "internalType": "uint256",
          "name": "tokenId",
          "type": "uint256"
        }
      ],
      "name": "mint",
      "outputs": [
        {
          "internalType": "bool",
          "name": "",
          "type": "bool"
        }
      ],
      "payable": false,
      "stateMutability": "nonpayable",
      "type": "function"
    },
    {
      "constant": false,
      "inputs": [
        {
          "internalType": "address",
          "name": "to",
          "type": "address"
        },
        {
          "internalType": "uint256",
          "name": "tokenId",
          "type": "uint256"
        },
        {
          "internalType": "string",
          "name": "tokenURI",
          "type": "string"
        }
      ],
      "name": "mintWithTokenURI",
      "outputs": [
        {
          "internalType": "bool",
          "name": "",
          "type": "bool"
        }
      ],
      "payable": false,
      "stateMutability": "nonpayable",
      "type": "function"
    },
    {
      "constant": true,
      "inputs": [],
      "name": "name",
      "outputs": [
        {
          "internalType": "string",
          "name": "",
          "type": "string"
        }
      ],
      "payable": false,
      "stateMutability": "view",
      "type": "function"
    },
    {
      "constant": true,
      "inputs": [
        {
          "internalType": "uint256",
          "name": "tokenId",
          "type": "uint256"
        }
      ],
      "name": "ownerOf",
      "outputs": [
        {
          "internalType": "address",
          "name": "",
          "type": "address"
        }
      ],
      "payable": false,
      "stateMutability": "view",
      "type": "function"
    },
    {
      "constant": false,
      "inputs": [],
      "name": "renounceMinter",
      "outputs": [],
      "payable": false,
      "stateMutability": "nonpayable",
      "type": "function"
    },
    {
      "constant": false,
      "inputs": [
        {
          "internalType": "address",
          "name": "to",
          "type": "address"
        },
        {
          "internalType": "uint256",
          "name": "tokenId",
          "type": "uint256"
        },
        {
          "internalType": "bytes",
          "name": "_data",
          "type": "bytes"
        }
      ],
      "name": "safeMint",
      "outputs": [
        {
          "internalType": "bool",
          "name": "",
          "type": "bool"
        }
      ],
      "payable": false,
      "stateMutability": "nonpayable",
      "type": "function"
    },
    {
      "constant": false,
      "inputs": [
        {
          "internalType": "address",
          "name": "to",
          "type": "address"
        },
        {
          "internalType": "uint256",
          "name": "tokenId",
          "type": "uint256"
        }
      ],
      "name": "safeMint",
      "outputs": [
        {
          "internalType": "bool",
          "name": "",
          "type": "bool"
        }
      ],
      "payable": false,
      "stateMutability": "nonpayable",
      "type": "function"
    },
    {
      "constant": false,
      "inputs": [
        {
          "internalType": "address",
          "name": "from",
          "type": "address"
        },
        {
          "internalType": "address",
          "name": "to",
          "type": "address"
        },
        {
          "internalType": "uint256",
          "name": "tokenId",
          "type": "uint256"
        }
      ],
      "name": "safeTransferFrom",
      "outputs": [],
      "payable": false,
      "stateMutability": "nonpayable",
      "type": "function"
    },
    {
      "constant": false,
      "inputs": [
        {
          "internalType": "address",
          "name": "from",
          "type": "address"
        },
        {
          "internalType": "address",
          "name": "to",
          "type": "address"
        },
        {
          "internalType": "uint256",
          "name": "tokenId",
          "type": "uint256"
        },
        {
          "internalType": "bytes",
          "name": "_data",
          "type": "bytes"
        }
      ],
      "name": "safeTransferFrom",
      "outputs": [],
      "payable": false,
      "stateMutability": "nonpayable",
      "type": "function"
    },
    {
      "constant": false,
      "inputs": [
        {
          "internalType": "address",
          "name": "to",
          "type": "address"
        },
        {
          "internalType": "bool",
          "name": "approved",
          "type": "bool"
        }
      ],
      "name": "setApprovalForAll",
      "outputs": [],
      "payable": false,
      "stateMutability": "nonpayable",
      "type": "function"
    },
    {
      "constant": true,
      "inputs": [
        {
          "internalType": "bytes4",
          "name": "interfaceId",
          "type": "bytes4"
        }
      ],
      "name": "supportsInterface",
      "outputs": [
        {
          "internalType": "bool",
          "name": "",
          "type": "bool"
        }
      ],
      "payable": false,
      "stateMutability": "view",
      "type": "function"
    },
    {
      "constant": true,
      "inputs": [],
      "name": "symbol",
      "outputs": [
        {
          "internalType": "string",
          "name": "",
          "type": "string"
        }
      ],
      "payable": false,
      "stateMutability": "view",
      "type": "function"
    },
    {
      "constant": true,
      "inputs": [
        {
          "internalType": "uint256",
          "name": "index",
          "type": "uint256"
        }
      ],
      "name": "tokenByIndex",
      "outputs": [
        {
          "internalType": "uint256",
          "name": "",
          "type": "uint256"
        }
      ],
      "payable": false,
      "stateMutability": "view",
      "type": "function"
    },
    {
      "constant": true,
      "inputs": [
        {
          "internalType": "address",
          "name": "owner",
          "type": "address"
        },
        {
          "internalType": "uint256",
          "name": "index",
          "type": "uint256"
        }
      ],
      "name": "tokenOfOwnerByIndex",
      "outputs": [
        {
          "internalType": "uint256",
          "name": "",
          "type": "uint256"
        }
      ],
      "payable": false,
      "stateMutability": "view",
      "type": "function"
    },
    {
      "constant": true,
      "inputs": [
        {
          "internalType": "uint256",
          "name": "tokenId",
          "type": "uint256"
        }
      ],
      "name": "tokenURI",
      "outputs": [
        {
          "internalType": "string",
          "name": "",
          "type": "string"
        }
      ],
      "payable": false,
      "stateMutability": "view",
      "type": "function"
    },
    {
      "constant": true,
      "inputs": [],
      "name": "totalSupply",
      "outputs": [
        {
          "internalType": "uint256",
          "name": "",
          "type": "uint256"
        }
      ],
      "payable": false,
      "stateMutability": "view",
      "type": "function"
    },
    {
      "constant": false,
      "inputs": [
        {
          "internalType": "address",
          "name": "from",
          "type": "address"
        },
        {
          "internalType": "address",
          "name": "to",
          "type": "address"
        },
        {
          "internalType": "uint256",
          "name": "tokenId",
          "type": "uint256"
        }
      ],
      "name": "transferFrom",
      "outputs": [],
      "payable": false,
      "stateMutability": "nonpayable",
      "type": "function"
    },
    {
      "constant": true,
      "inputs": [
        {
          "internalType": "uint256",
          "name": "tokenId",
          "type": "uint256"
        }
      ],
      "name": "exists",
      "outputs": [
        {
          "internalType": "bool",
          "name": "",
          "type": "bool"
        }
      ],
      "payable": false,
      "stateMutability": "view",
      "type": "function"
    },
    {
      "constant": true,
      "inputs": [
        {
          "internalType": "address",
          "name": "owner",
          "type": "address"
        }
      ],
      "name": "tokensOfOwner",
      "outputs": [
        {
          "internalType": "uint256[]",
          "name": "",
          "type": "uint256[]"
        }
      ],
      "payable": false,
      "stateMutability": "view",
      "type": "function"
    },
    {
      "constant": false,
      "inputs": [
        {
          "internalType": "uint256",
          "name": "tokenId",
          "type": "uint256"
        },
        {
          "internalType": "string",
          "name": "uri",
          "type": "string"
        }
      ],
      "name": "setTokenURI",
      "outputs": [],
      "payable": false,
      "stateMutability": "nonpayable",
      "type": "function"
    },
    {
      "constant": false,
      "inputs": [
        {
          "internalType": "string",
          "name": "baseURI",
          "type": "string"
        }
      ],
      "name": "setBaseURI",
      "outputs": [],
      "payable": false,
      "stateMutability": "nonpayable",
      "type": "function"
    }
  ],
  "bytecode": "0x60806040523480156200001157600080fd5b506040516200403a3803806200403a833981810160405260408110156200003757600080fd5b81019080805160405193929190846401000000008211156200005857600080fd5b838201915060208201858111156200006f57600080fd5b82518660018202830111640100000000821117156200008d57600080fd5b8083526020830192505050908051906020019080838360005b83811015620000c3578082015181840152602081019050620000a6565b50505050905090810190601f168015620000f15780820380516001836020036101000a031916815260200191505b50604052602001805160405193929190846401000000008211156200011557600080fd5b838201915060208201858111156200012c57600080fd5b82518660018202830111640100000000821117156200014a57600080fd5b8083526020830192505050908051906020019080838360005b838110156200018057808201518184015260208101905062000163565b50505050905090810190601f168015620001ae5780820380516001836020036101000a031916815260200191505b5060405250505081818181620001d16301ffc9a760e01b6200027760201b60201c565b620001e96380ac58cd60e01b6200027760201b60201c565b6200020163780e9d6360e01b6200027760201b60201c565b816009908051906020019062000219929190620005ad565b5080600a908051906020019062000232929190620005ad565b506200024b635b5e139f60e01b6200027760201b60201c565b505050506200026f620002636200038060201b60201c565b6200038860201b60201c565b50506200065c565b63ffffffff60e01b817bffffffffffffffffffffffffffffffffffffffffffffffffffffffff1916141562000314576040517f08c379a000000000000000000000000000000000000000000000000000000000815260040180806020018281038252601c8152602001807f4552433136353a20696e76616c696420696e746572666163652069640000000081525060200191505060405180910390fd5b6001600080837bffffffffffffffffffffffffffffffffffffffffffffffffffffffff19167bffffffffffffffffffffffffffffffffffffffffffffffffffffffff1916815260200190815260200160002060006101000a81548160ff02191690831515021790555050565b600033905090565b620003a381600d620003e960201b62002ec91790919060201c565b8073ffffffffffffffffffffffffffffffffffffffff167f6ae172837ea30b801fbfcdd4108aa1d5bf8ff775444fd70256b44e6bf3dfc3f660405160405180910390a250565b620003fb8282620004cd60201b60201c565b156200046f576040517f08c379a000000000000000000000000000000000000000000000000000000000815260040180806020018281038252601f8152602001807f526f6c65733a206163636f756e7420616c72656164792068617320726f6c650081525060200191505060405180910390fd5b60018260000160008373ffffffffffffffffffffffffffffffffffffffff1673ffffffffffffffffffffffffffffffffffffffff16815260200190815260200160002060006101000a81548160ff0219169083151502179055505050565b60008073ffffffffffffffffffffffffffffffffffffffff168273ffffffffffffffffffffffffffffffffffffffff16141562000556576040517f08c379a0000000000000000000000000000000000000000000000000000000008152600401808060200182810382526022815260200180620040186022913960400191505060405180910390fd5b8260000160008373ffffffffffffffffffffffffffffffffffffffff1673ffffffffffffffffffffffffffffffffffffffff16815260200190815260200160002060009054906101000a900460ff16905092915050565b828054600181600116156101000203166002900490600052602060002090601f016020900481019282601f10620005f057805160ff191683800117855562000621565b8280016001018555821562000621579182015b828111156200062057825182559160200191906001019062000603565b5b50905062000630919062000634565b5090565b6200065991905b80821115620006555760008160009055506001016200063b565b5090565b90565b6139ac806200066c6000396000f3fe608060405234801561001057600080fd5b50600436106101cf5760003560e01c806355f804b311610104578063983b2d56116100a2578063aa271e1a11610071578063aa271e1a14610cd3578063b88d4fde14610d2f578063c87b56dd14610e34578063e985e9c514610edb576101cf565b8063983b2d5614610bcf5780639865027514610c13578063a144819414610c1d578063a22cb46514610c83576101cf565b806370a08231116100de57806370a082311461095e5780638462151c146109b65780638832e6e314610a4f57806395d89b4114610b4c576101cf565b806355f804b3146107b25780636352211e1461086d5780636c0360eb146108db576101cf565b80632f745c591161017157806342966c681161014b57806342966c68146105ff5780634f558e791461062d5780634f6ccce71461067357806350bb4e7f146106b5576101cf565b80632f745c59146104c957806340c10f191461052b57806342842e0e14610591576101cf565b8063095ea7b3116101ad578063095ea7b31461032a578063162094c41461037857806318160ddd1461043d57806323b872dd1461045b576101cf565b806301ffc9a7146101d457806306fdde0314610239578063081812fc146102bc575b600080fd5b61021f600480360360208110156101ea57600080fd5b8101908080357bffffffffffffffffffffffffffffffffffffffffffffffffffffffff19169060200190929190505050610f57565b604051808215151515815260200191505060405180910390f35b610241610fbe565b6040518080602001828103825283818151815260200191508051906020019080838360005b83811015610281578082015181840152602081019050610266565b50505050905090810190601f1680156102ae5780820380516001836020036101000a031916815260200191505b509250505060405180910390f35b6102e8600480360360208110156102d257600080fd5b8101908080359060200190929190505050611060565b604051808273ffffffffffffffffffffffffffffffffffffffff1673ffffffffffffffffffffffffffffffffffffffff16815260200191505060405180910390f35b6103766004803603604081101561034057600080fd5b81019080803573ffffffffffffffffffffffffffffffffffffffff169060200190929190803590602001909291905050506110fb565b005b61043b6004803603604081101561038e57600080fd5b8101908080359060200190929190803590602001906401000000008111156103b557600080fd5b8201836020820111156103c757600080fd5b803590602001918460018302840111640100000000831117156103e957600080fd5b91908080601f016020809104026020016040519081016040528093929190818152602001838380828437600081840152601f19601f8201169050808301925050505050505091929192905050506112e2565b005b6104456112f0565b6040518082815260200191505060405180910390f35b6104c76004803603606081101561047157600080fd5b81019080803573ffffffffffffffffffffffffffffffffffffffff169060200190929190803573ffffffffffffffffffffffffffffffffffffffff169060200190929190803590602001909291905050506112fd565b005b610515600480360360408110156104df57600080fd5b81019080803573ffffffffffffffffffffffffffffffffffffffff16906020019092919080359060200190929190505050611373565b6040518082815260200191505060405180910390f35b6105776004803603604081101561054157600080fd5b81019080803573ffffffffffffffffffffffffffffffffffffffff16906020019092919080359060200190929190505050611432565b604051808215151515815260200191505060405180910390f35b6105fd600480360360608110156105a757600080fd5b81019080803573ffffffffffffffffffffffffffffffffffffffff169060200190929190803573ffffffffffffffffffffffffffffffffffffffff169060200190929190803590602001909291905050506114ad565b005b61062b6004803603602081101561061557600080fd5b81019080803590602001909291905050506114cd565b005b6106596004803603602081101561064357600080fd5b810190808035906020019092919050505061153f565b604051808215151515815260200191505060405180910390f35b61069f6004803603602081101561068957600080fd5b8101908080359060200190929190505050611551565b6040518082815260200191505060405180910390f35b610798600480360360608110156106cb57600080fd5b81019080803573ffffffffffffffffffffffffffffffffffffffff169060200190929190803590602001909291908035906020019064010000000081111561071257600080fd5b82018360208201111561072457600080fd5b8035906020019184600183028401116401000000008311171561074657600080fd5b91908080601f016020809104026020016040519081016040528093929190818152602001838380828437600081840152601f19601f8201169050808301925050505050505091929192905050506115d1565b604051808215151515815260200191505060405180910390f35b61086b600480360360208110156107c857600080fd5b81019080803590602001906401000000008111156107e557600080fd5b8201836020820111156107f757600080fd5b8035906020019184600183028401116401000000008311171561081957600080fd5b91908080601f016020809104026020016040519081016040528093929190818152602001838380828437600081840152601f19601f820116905080830192505050505050509192919290505050611657565b005b6108996004803603602081101561088357600080fd5b8101908080359060200190929190505050611663565b604051808273ffffffffffffffffffffffffffffffffffffffff1673ffffffffffffffffffffffffffffffffffffffff16815260200191505060405180910390f35b6108e361172b565b6040518080602001828103825283818151815260200191508051906020019080838360005b83811015610923578082015181840152602081019050610908565b50505050905090810190601f1680156109505780820380516001836020036101000a031916815260200191505b509250505060405180910390f35b6109a06004803603602081101561097457600080fd5b81019080803573ffffffffffffffffffffffffffffffffffffffff1690602001909291905050506117cd565b6040518082815260200191505060405180910390f35b6109f8600480360360208110156109cc57600080fd5b81019080803573ffffffffffffffffffffffffffffffffffffffff1690602001909291905050506118a2565b6040518080602001828103825283818151815260200191508051906020019060200280838360005b83811015610a3b578082015181840152602081019050610a20565b505050509050019250505060405180910390f35b610b3260048036036060811015610a6557600080fd5b81019080803573ffffffffffffffffffffffffffffffffffffffff1690602001909291908035906020019092919080359060200190640100000000811115610aac57600080fd5b820183602082011115610abe57600080fd5b80359060200191846001830284011164010000000083111715610ae057600080fd5b91908080601f016020809104026020016040519081016040528093929190818152602001838380828437600081840152601f19601f820116905080830192505050505050509192919290505050611903565b604051808215151515815260200191505060405180910390f35b610b54611980565b6040518080602001828103825283818151815260200191508051906020019080838360005b83811015610b94578082015181840152602081019050610b79565b50505050905090810190601f168015610bc15780820380516001836020036101000a031916815260200191505b509250505060405180910390f35b610c1160048036036020811015610be557600080fd5b81019080803573ffffffffffffffffffffffffffffffffffffffff169060200190929190505050611a22565b005b610c1b611a93565b005b610c6960048036036040811015610c3357600080fd5b81019080803573ffffffffffffffffffffffffffffffffffffffff16906020019092919080359060200190929190505050611aa5565b604051808215151515815260200191505060405180910390f35b610cd160048036036040811015610c9957600080fd5b81019080803573ffffffffffffffffffffffffffffffffffffffff169060200190929190803515159060200190929190505050611b20565b005b610d1560048036036020811015610ce957600080fd5b81019080803573ffffffffffffffffffffffffffffffffffffffff169060200190929190505050611cd8565b604051808215151515815260200191505060405180910390f35b610e3260048036036080811015610d4557600080fd5b81019080803573ffffffffffffffffffffffffffffffffffffffff169060200190929190803573ffffffffffffffffffffffffffffffffffffffff1690602001909291908035906020019092919080359060200190640100000000811115610dac57600080fd5b820183602082011115610dbe57600080fd5b80359060200191846001830284011164010000000083111715610de057600080fd5b91908080601f016020809104026020016040519081016040528093929190818152602001838380828437600081840152601f19601f820116905080830192505050505050509192919290505050611cf5565b005b610e6060048036036020811015610e4a57600080fd5b8101908080359060200190929190505050611d6d565b6040518080602001828103825283818151815260200191508051906020019080838360005b83811015610ea0578082015181840152602081019050610e85565b50505050905090810190601f168015610ecd5780820380516001836020036101000a031916815260200191505b509250505060405180910390f35b610f3d60048036036040811015610ef157600080fd5b81019080803573ffffffffffffffffffffffffffffffffffffffff169060200190929190803573ffffffffffffffffffffffffffffffffffffffff169060200190929190505050611f6f565b604051808215151515815260200191505060405180910390f35b6000806000837bffffffffffffffffffffffffffffffffffffffffffffffffffffffff19167bffffffffffffffffffffffffffffffffffffffffffffffffffffffff1916815260200190815260200160002060009054906101000a900460ff169050919050565b606060098054600181600116156101000203166002900480601f0160208091040260200160405190810160405280929190818152602001828054600181600116156101000203166002900480156110565780601f1061102b57610100808354040283529160200191611056565b820191906000526020600020905b81548152906001019060200180831161103957829003601f168201915b5050505050905090565b600061106b82612003565b6110c0576040517f08c379a000000000000000000000000000000000000000000000000000000000815260040180806020018281038252602c8152602001806137d3602c913960400191505060405180910390fd5b6002600083815260200190815260200160002060009054906101000a900473ffffffffffffffffffffffffffffffffffffffff169050919050565b600061110682611663565b90508073ffffffffffffffffffffffffffffffffffffffff168373ffffffffffffffffffffffffffffffffffffffff16141561118d576040517f08c379a00000000000000000000000000000000000000000000000000000000081526004018080602001828103825260218152602001806138a56021913960400191505060405180910390fd5b8073ffffffffffffffffffffffffffffffffffffffff166111ac612075565b73ffffffffffffffffffffffffffffffffffffffff1614806111db57506111da816111d5612075565b611f6f565b5b611230576040517f08c379a00000000000000000000000000000000000000000000000000000000081526004018080602001828103825260388152602001806136f76038913960400191505060405180910390fd5b826002600084815260200190815260200160002060006101000a81548173ffffffffffffffffffffffffffffffffffffffff021916908373ffffffffffffffffffffffffffffffffffffffff160217905550818373ffffffffffffffffffffffffffffffffffffffff168273ffffffffffffffffffffffffffffffffffffffff167f8c5be1e5ebec7d5bd14f71427d1e84f3dd0314c0f7b2291e5b200ac8c7c3b92560405160405180910390a4505050565b6112ec828261207d565b5050565b6000600780549050905090565b61130e611308612075565b82612107565b611363576040517f08c379a00000000000000000000000000000000000000000000000000000000081526004018080602001828103825260318152602001806138c66031913960400191505060405180910390fd5b61136e8383836121fb565b505050565b600061137e836117cd565b82106113d5576040517f08c379a000000000000000000000000000000000000000000000000000000000815260040180806020018281038252602b81526020018061364a602b913960400191505060405180910390fd5b600560008473ffffffffffffffffffffffffffffffffffffffff1673ffffffffffffffffffffffffffffffffffffffff168152602001908152602001600020828154811061141f57fe5b9060005260206000200154905092915050565b600061144461143f612075565b611cd8565b611499576040517f08c379a00000000000000000000000000000000000000000000000000000000081526004018080602001828103825260308152602001806137826030913960400191505060405180910390fd5b6114a3838361221f565b6001905092915050565b6114c883838360405180602001604052806000815250611cf5565b505050565b6114de6114d8612075565b82612107565b611533576040517f08c379a00000000000000000000000000000000000000000000000000000000081526004018080602001828103825260308152602001806139486030913960400191505060405180910390fd5b61153c81612240565b50565b600061154a82612003565b9050919050565b600061155b6112f0565b82106115b2576040517f08c379a000000000000000000000000000000000000000000000000000000000815260040180806020018281038252602c8152602001806138f7602c913960400191505060405180910390fd5b600782815481106115bf57fe5b90600052602060002001549050919050565b60006115e36115de612075565b611cd8565b611638576040517f08c379a00000000000000000000000000000000000000000000000000000000081526004018080602001828103825260308152602001806137826030913960400191505060405180910390fd5b611642848461221f565b61164c838361207d565b600190509392505050565b61166081612255565b50565b6000806001600084815260200190815260200160002060009054906101000a900473ffffffffffffffffffffffffffffffffffffffff169050600073ffffffffffffffffffffffffffffffffffffffff168173ffffffffffffffffffffffffffffffffffffffff161415611722576040517f08c379a00000000000000000000000000000000000000000000000000000000081526004018080602001828103825260298152602001806137596029913960400191505060405180910390fd5b80915050919050565b6060600b8054600181600116156101000203166002900480601f0160208091040260200160405190810160405280929190818152602001828054600181600116156101000203166002900480156117c35780601f10611798576101008083540402835291602001916117c3565b820191906000526020600020905b8154815290600101906020018083116117a657829003601f168201915b5050505050905090565b60008073ffffffffffffffffffffffffffffffffffffffff168273ffffffffffffffffffffffffffffffffffffffff161415611854576040517f08c379a000000000000000000000000000000000000000000000000000000000815260040180806020018281038252602a81526020018061372f602a913960400191505060405180910390fd5b61189b600360008473ffffffffffffffffffffffffffffffffffffffff1673ffffffffffffffffffffffffffffffffffffffff16815260200190815260200160002061226f565b9050919050565b60606118ad8261227d565b8054806020026020016040519081016040528092919081815260200182805480156118f757602002820191906000526020600020905b8154815260200190600101908083116118e3575b50505050509050919050565b6000611915611910612075565b611cd8565b61196a576040517f08c379a00000000000000000000000000000000000000000000000000000000081526004018080602001828103825260308152602001806137826030913960400191505060405180910390fd5b6119758484846122c5565b600190509392505050565b6060600a8054600181600116156101000203166002900480601f016020809104026020016040519081016040528092919081815260200182805460018160011615610100020316600290048015611a185780601f106119ed57610100808354040283529160200191611a18565b820191906000526020600020905b8154815290600101906020018083116119fb57829003601f168201915b5050505050905090565b611a32611a2d612075565b611cd8565b611a87576040517f08c379a00000000000000000000000000000000000000000000000000000000081526004018080602001828103825260308152602001806137826030913960400191505060405180910390fd5b611a9081612336565b50565b611aa3611a9e612075565b612390565b565b6000611ab7611ab2612075565b611cd8565b611b0c576040517f08c379a00000000000000000000000000000000000000000000000000000000081526004018080602001828103825260308152602001806137826030913960400191505060405180910390fd5b611b1683836123ea565b6001905092915050565b611b28612075565b73ffffffffffffffffffffffffffffffffffffffff168273ffffffffffffffffffffffffffffffffffffffff161415611bc9576040517f08c379a00000000000000000000000000000000000000000000000000000000081526004018080602001828103825260198152602001807f4552433732313a20617070726f766520746f2063616c6c65720000000000000081525060200191505060405180910390fd5b8060046000611bd6612075565b73ffffffffffffffffffffffffffffffffffffffff1673ffffffffffffffffffffffffffffffffffffffff16815260200190815260200160002060008473ffffffffffffffffffffffffffffffffffffffff1673ffffffffffffffffffffffffffffffffffffffff16815260200190815260200160002060006101000a81548160ff0219169083151502179055508173ffffffffffffffffffffffffffffffffffffffff16611c83612075565b73ffffffffffffffffffffffffffffffffffffffff167f17307eab39ab6107e8899845ad3d59bd9653f200f220920489ca2b5937696c3183604051808215151515815260200191505060405180910390a35050565b6000611cee82600d61240890919063ffffffff16565b9050919050565b611d06611d00612075565b83612107565b611d5b576040517f08c379a00000000000000000000000000000000000000000000000000000000081526004018080602001828103825260318152602001806138c66031913960400191505060405180910390fd5b611d67848484846124e6565b50505050565b6060611d7882612003565b611dcd576040517f08c379a000000000000000000000000000000000000000000000000000000000815260040180806020018281038252602f815260200180613876602f913960400191505060405180910390fd5b6060600c60008481526020019081526020016000208054600181600116156101000203166002900480601f016020809104026020016040519081016040528092919081815260200182805460018160011615610100020316600290048015611e765780601f10611e4b57610100808354040283529160200191611e76565b820191906000526020600020905b815481529060010190602001808311611e5957829003601f168201915b50505050509050600081511415611e9f5760405180602001604052806000815250915050611f6a565b600b816040516020018083805460018160011615610100020316600290048015611f005780601f10611ede576101008083540402835291820191611f00565b820191906000526020600020905b815481529060010190602001808311611eec575b505082805190602001908083835b60208310611f315780518252602082019150602081019050602083039250611f0e565b6001836020036101000a038019825116818451168082178552505050505050905001925050506040516020818303038152906040529150505b919050565b6000600460008473ffffffffffffffffffffffffffffffffffffffff1673ffffffffffffffffffffffffffffffffffffffff16815260200190815260200160002060008373ffffffffffffffffffffffffffffffffffffffff1673ffffffffffffffffffffffffffffffffffffffff16815260200190815260200160002060009054906101000a900460ff16905092915050565b6000806001600084815260200190815260200160002060009054906101000a900473ffffffffffffffffffffffffffffffffffffffff169050600073ffffffffffffffffffffffffffffffffffffffff168173ffffffffffffffffffffffffffffffffffffffff161415915050919050565b600033905090565b61208682612003565b6120db576040517f08c379a000000000000000000000000000000000000000000000000000000000815260040180806020018281038252602c8152602001806137ff602c913960400191505060405180910390fd5b80600c60008481526020019081526020016000209080519060200190612102929190613530565b505050565b600061211282612003565b612167576040517f08c379a000000000000000000000000000000000000000000000000000000000815260040180806020018281038252602c8152602001806136cb602c913960400191505060405180910390fd5b600061217283611663565b90508073ffffffffffffffffffffffffffffffffffffffff168473ffffffffffffffffffffffffffffffffffffffff1614806121e157508373ffffffffffffffffffffffffffffffffffffffff166121c984611060565b73ffffffffffffffffffffffffffffffffffffffff16145b806121f257506121f18185611f6f565b5b91505092915050565b612206838383612558565b61221083826127b3565b61221a8282612951565b505050565b6122298282612a18565b6122338282612951565b61223c81612c30565b5050565b61225261224c82611663565b82612c7c565b50565b80600b908051906020019061226b929190613530565b5050565b600081600001549050919050565b6000600560008373ffffffffffffffffffffffffffffffffffffffff1673ffffffffffffffffffffffffffffffffffffffff1681526020019081526020016000209050919050565b6122cf838361221f565b6122dc6000848484612cd9565b612331576040517f08c379a00000000000000000000000000000000000000000000000000000000081526004018080602001828103825260328152602001806136756032913960400191505060405180910390fd5b505050565b61234a81600d612ec990919063ffffffff16565b8073ffffffffffffffffffffffffffffffffffffffff167f6ae172837ea30b801fbfcdd4108aa1d5bf8ff775444fd70256b44e6bf3dfc3f660405160405180910390a250565b6123a481600d612fa490919063ffffffff16565b8073ffffffffffffffffffffffffffffffffffffffff167fe94479a9f7e1952cc78f2d6baab678adc1b772d936c6583def489e524cb6669260405160405180910390a250565b6124048282604051806020016040528060008152506122c5565b5050565b60008073ffffffffffffffffffffffffffffffffffffffff168273ffffffffffffffffffffffffffffffffffffffff16141561248f576040517f08c379a000000000000000000000000000000000000000000000000000000000815260040180806020018281038252602281526020018061382b6022913960400191505060405180910390fd5b8260000160008373ffffffffffffffffffffffffffffffffffffffff1673ffffffffffffffffffffffffffffffffffffffff16815260200190815260200160002060009054906101000a900460ff16905092915050565b6124f18484846121fb565b6124fd84848484612cd9565b612552576040517f08c379a00000000000000000000000000000000000000000000000000000000081526004018080602001828103825260328152602001806136756032913960400191505060405180910390fd5b50505050565b8273ffffffffffffffffffffffffffffffffffffffff1661257882611663565b73ffffffffffffffffffffffffffffffffffffffff16146125e4576040517f08c379a000000000000000000000000000000000000000000000000000000000815260040180806020018281038252602981526020018061384d6029913960400191505060405180910390fd5b600073ffffffffffffffffffffffffffffffffffffffff168273ffffffffffffffffffffffffffffffffffffffff16141561266a576040517f08c379a00000000000000000000000000000000000000000000000000000000081526004018080602001828103825260248152602001806136a76024913960400191505060405180910390fd5b61267381613061565b6126ba600360008573ffffffffffffffffffffffffffffffffffffffff1673ffffffffffffffffffffffffffffffffffffffff16815260200190815260200160002061311f565b612701600360008473ffffffffffffffffffffffffffffffffffffffff1673ffffffffffffffffffffffffffffffffffffffff168152602001908152602001600020613142565b816001600083815260200190815260200160002060006101000a81548173ffffffffffffffffffffffffffffffffffffffff021916908373ffffffffffffffffffffffffffffffffffffffff160217905550808273ffffffffffffffffffffffffffffffffffffffff168473ffffffffffffffffffffffffffffffffffffffff167fddf252ad1be2c89b69c2b068fc378daa952ba7f163c4a11628f55a4df523b3ef60405160405180910390a4505050565b600061280b6001600560008673ffffffffffffffffffffffffffffffffffffffff1673ffffffffffffffffffffffffffffffffffffffff1681526020019081526020016000208054905061315890919063ffffffff16565b90506000600660008481526020019081526020016000205490508181146128f8576000600560008673ffffffffffffffffffffffffffffffffffffffff1673ffffffffffffffffffffffffffffffffffffffff168152602001908152602001600020838154811061287857fe5b9060005260206000200154905080600560008773ffffffffffffffffffffffffffffffffffffffff1673ffffffffffffffffffffffffffffffffffffffff16815260200190815260200160002083815481106128d057fe5b9060005260206000200181905550816006600083815260200190815260200160002081905550505b600560008573ffffffffffffffffffffffffffffffffffffffff1673ffffffffffffffffffffffffffffffffffffffff16815260200190815260200160002080548091906001900361294a91906135b0565b5050505050565b600560008373ffffffffffffffffffffffffffffffffffffffff1673ffffffffffffffffffffffffffffffffffffffff168152602001908152602001600020805490506006600083815260200190815260200160002081905550600560008373ffffffffffffffffffffffffffffffffffffffff1673ffffffffffffffffffffffffffffffffffffffff1681526020019081526020016000208190806001815401808255809150509060018203906000526020600020016000909192909190915055505050565b600073ffffffffffffffffffffffffffffffffffffffff168273ffffffffffffffffffffffffffffffffffffffff161415612abb576040517f08c379a00000000000000000000000000000000000000000000000000000000081526004018080602001828103825260208152602001807f4552433732313a206d696e7420746f20746865207a65726f206164647265737381525060200191505060405180910390fd5b612ac481612003565b15612b37576040517f08c379a000000000000000000000000000000000000000000000000000000000815260040180806020018281038252601c8152602001807f4552433732313a20746f6b656e20616c7265616479206d696e7465640000000081525060200191505060405180910390fd5b816001600083815260200190815260200160002060006101000a81548173ffffffffffffffffffffffffffffffffffffffff021916908373ffffffffffffffffffffffffffffffffffffffff160217905550612bd0600360008473ffffffffffffffffffffffffffffffffffffffff1673ffffffffffffffffffffffffffffffffffffffff168152602001908152602001600020613142565b808273ffffffffffffffffffffffffffffffffffffffff16600073ffffffffffffffffffffffffffffffffffffffff167fddf252ad1be2c89b69c2b068fc378daa952ba7f163c4a11628f55a4df523b3ef60405160405180910390a45050565b6007805490506008600083815260200190815260200160002081905550600781908060018154018082558091505090600182039060005260206000200160009091929091909150555050565b612c8682826131a2565b6000600c600083815260200190815260200160002080546001816001161561010002031660029004905014612cd557600c60008281526020019081526020016000206000612cd491906135dc565b5b5050565b6000612cfa8473ffffffffffffffffffffffffffffffffffffffff166131dc565b612d075760019050612ec1565b60008473ffffffffffffffffffffffffffffffffffffffff1663150b7a02612d2d612075565b8887876040518563ffffffff1660e01b8152600401808573ffffffffffffffffffffffffffffffffffffffff1673ffffffffffffffffffffffffffffffffffffffff1681526020018473ffffffffffffffffffffffffffffffffffffffff1673ffffffffffffffffffffffffffffffffffffffff16815260200183815260200180602001828103825283818151815260200191508051906020019080838360005b83811015612de9578082015181840152602081019050612dce565b50505050905090810190601f168015612e165780820380516001836020036101000a031916815260200191505b5095505050505050602060405180830381600087803b158015612e3857600080fd5b505af1158015612e4c573d6000803e3d6000fd5b505050506040513d6020811015612e6257600080fd5b8101908080519060200190929190505050905063150b7a0260e01b7bffffffffffffffffffffffffffffffffffffffffffffffffffffffff1916817bffffffffffffffffffffffffffffffffffffffffffffffffffffffff1916149150505b949350505050565b612ed38282612408565b15612f46576040517f08c379a000000000000000000000000000000000000000000000000000000000815260040180806020018281038252601f8152602001807f526f6c65733a206163636f756e7420616c72656164792068617320726f6c650081525060200191505060405180910390fd5b60018260000160008373ffffffffffffffffffffffffffffffffffffffff1673ffffffffffffffffffffffffffffffffffffffff16815260200190815260200160002060006101000a81548160ff0219169083151502179055505050565b612fae8282612408565b613003576040517f08c379a00000000000000000000000000000000000000000000000000000000081526004018080602001828103825260218152602001806137b26021913960400191505060405180910390fd5b60008260000160008373ffffffffffffffffffffffffffffffffffffffff1673ffffffffffffffffffffffffffffffffffffffff16815260200190815260200160002060006101000a81548160ff0219169083151502179055505050565b600073ffffffffffffffffffffffffffffffffffffffff166002600083815260200190815260200160002060009054906101000a900473ffffffffffffffffffffffffffffffffffffffff1673ffffffffffffffffffffffffffffffffffffffff161461311c5760006002600083815260200190815260200160002060006101000a81548173ffffffffffffffffffffffffffffffffffffffff021916908373ffffffffffffffffffffffffffffffffffffffff1602179055505b50565b6131376001826000015461315890919063ffffffff16565b816000018190555050565b6001816000016000828254019250508190555050565b600061319a83836040518060400160405280601e81526020017f536166654d6174683a207375627472616374696f6e206f766572666c6f770000815250613227565b905092915050565b6131ac82826132e7565b6131b682826127b3565b600060066000838152602001908152602001600020819055506131d881613476565b5050565b60008060007fc5d2460186f7233c927e7db2dcc703c0e500b653ca82273b7bfad8045d85a47060001b9050833f91506000801b821415801561321e5750808214155b92505050919050565b60008383111582906132d4576040517f08c379a00000000000000000000000000000000000000000000000000000000081526004018080602001828103825283818151815260200191508051906020019080838360005b8381101561329957808201518184015260208101905061327e565b50505050905090810190601f1680156132c65780820380516001836020036101000a031916815260200191505b509250505060405180910390fd5b5060008385039050809150509392505050565b8173ffffffffffffffffffffffffffffffffffffffff1661330782611663565b73ffffffffffffffffffffffffffffffffffffffff1614613373576040517f08c379a00000000000000000000000000000000000000000000000000000000081526004018080602001828103825260258152602001806139236025913960400191505060405180910390fd5b61337c81613061565b6133c3600360008473ffffffffffffffffffffffffffffffffffffffff1673ffffffffffffffffffffffffffffffffffffffff16815260200190815260200160002061311f565b60006001600083815260200190815260200160002060006101000a81548173ffffffffffffffffffffffffffffffffffffffff021916908373ffffffffffffffffffffffffffffffffffffffff16021790555080600073ffffffffffffffffffffffffffffffffffffffff168373ffffffffffffffffffffffffffffffffffffffff167fddf252ad1be2c89b69c2b068fc378daa952ba7f163c4a11628f55a4df523b3ef60405160405180910390a45050565b6000613491600160078054905061315890919063ffffffff16565b90506000600860008481526020019081526020016000205490506000600783815481106134ba57fe5b9060005260206000200154905080600783815481106134d557fe5b9060005260206000200181905550816008600083815260200190815260200160002081905550600780548091906001900361351091906135b0565b506000600860008681526020019081526020016000208190555050505050565b828054600181600116156101000203166002900490600052602060002090601f016020900481019282601f1061357157805160ff191683800117855561359f565b8280016001018555821561359f579182015b8281111561359e578251825591602001919060010190613583565b5b5090506135ac9190613624565b5090565b8154818355818111156135d7578183600052602060002091820191016135d69190613624565b5b505050565b50805460018160011615610100020316600290046000825580601f106136025750613621565b601f0160209004906000526020600020908101906136209190613624565b5b50565b61364691905b8082111561364257600081600090555060010161362a565b5090565b9056fe455243373231456e756d657261626c653a206f776e657220696e646578206f7574206f6620626f756e64734552433732313a207472616e7366657220746f206e6f6e20455243373231526563656976657220696d706c656d656e7465724552433732313a207472616e7366657220746f20746865207a65726f20616464726573734552433732313a206f70657261746f7220717565727920666f72206e6f6e6578697374656e7420746f6b656e4552433732313a20617070726f76652063616c6c6572206973206e6f74206f776e6572206e6f7220617070726f76656420666f7220616c6c4552433732313a2062616c616e636520717565727920666f7220746865207a65726f20616464726573734552433732313a206f776e657220717565727920666f72206e6f6e6578697374656e7420746f6b656e4d696e746572526f6c653a2063616c6c657220646f6573206e6f74206861766520746865204d696e74657220726f6c65526f6c65733a206163636f756e7420646f6573206e6f74206861766520726f6c654552433732313a20617070726f76656420717565727920666f72206e6f6e6578697374656e7420746f6b656e4552433732314d657461646174613a2055524920736574206f66206e6f6e6578697374656e7420746f6b656e526f6c65733a206163636f756e7420697320746865207a65726f20616464726573734552433732313a207472616e73666572206f6620746f6b656e2074686174206973206e6f74206f776e4552433732314d657461646174613a2055524920717565727920666f72206e6f6e6578697374656e7420746f6b656e4552433732313a20617070726f76616c20746f2063757272656e74206f776e65724552433732313a207472616e736665722063616c6c6572206973206e6f74206f776e6572206e6f7220617070726f766564455243373231456e756d657261626c653a20676c6f62616c20696e646578206f7574206f6620626f756e64734552433732313a206275726e206f6620746f6b656e2074686174206973206e6f74206f776e4552433732314275726e61626c653a2063616c6c6572206973206e6f74206f776e6572206e6f7220617070726f766564a265627a7a72315820c710c06ea934878eae9445e45903db0b9c71979abb8be0db05f7c228fb346b1d64736f6c634300050c0032526f6c65733a206163636f756e7420697320746865207a65726f2061646472657373",
  "source": "pragma solidity ^0.5.0;\n\nimport \"../token/ERC721/ERC721Full.sol\";\nimport \"../token/ERC721/ERC721Mintable.sol\";\nimport \"../token/ERC721/ERC721MetadataMintable.sol\";\nimport \"../token/ERC721/ERC721Burnable.sol\";\n\n/**\n * @title ERC721FullMock\n * This mock just provides public functions for setting metadata URI, getting all tokens of an owner,\n * checking token existence, removal of a token from an address\n */\ncontract ERC721FullMock is ERC721Full, ERC721Mintable, ERC721MetadataMintable, ERC721Burnable {\n    constructor (string memory name, string memory symbol) public ERC721Mintable() ERC721Full(name, symbol) {\n        // solhint-disable-previous-line no-empty-blocks\n    }\n\n    function exists(uint256 tokenId) public view returns (bool) {\n        return _exists(tokenId);\n    }\n\n    function tokensOfOwner(address owner) public view returns (uint256[] memory) {\n        return _tokensOfOwner(owner);\n    }\n\n    function setTokenURI(uint256 tokenId, string memory uri) public {\n        _setTokenURI(tokenId, uri);\n    }\n\n    function setBaseURI(string memory baseURI) public {\n        _setBaseURI(baseURI);\n    }\n}\n",
  "sourcePath": "C:/Users/kev-y/OneDrive - De Vinci/ESILV/A5/Monnaies Numriques/ERC20/contracts/openzeppelin/contracts/mocks/ERC721FullMock.sol",
  "compiler": {
    "name": "solc",
    "version": "0.5.12+commit.7709ece9.Emscripten.clang"
  },
  "schemaVersion": "3.0.19",
  "updatedAt": "2019-11-20T11:24:44.782Z",
  "devdoc": {
    "methods": {
      "approve(address,uint256)": {
        "details": "Approves another address to transfer the given token ID The zero address indicates there is no approved address. There can only be one approved address per token at a given time. Can only be called by the token owner or an approved operator.",
        "params": {
          "to": "address to be approved for the given token ID",
          "tokenId": "uint256 ID of the token to be approved"
        }
      },
      "balanceOf(address)": {
        "details": "Gets the balance of the specified address.",
        "params": {
          "owner": "address to query the balance of"
        },
        "return": "uint256 representing the amount owned by the passed address"
      },
      "baseURI()": {
        "details": "Returns the base URI set via {_setBaseURI}. This will be automatically added as a preffix in {tokenURI} to each token's URI, when they are non-empty."
      },
      "burn(uint256)": {
        "details": "Burns a specific ERC721 token.",
        "params": {
          "tokenId": "uint256 id of the ERC721 token to be burned."
        }
      },
      "getApproved(uint256)": {
        "details": "Gets the approved address for a token ID, or zero if no address set Reverts if the token ID does not exist.",
        "params": {
          "tokenId": "uint256 ID of the token to query the approval of"
        },
        "return": "address currently approved for the given token ID"
      },
      "isApprovedForAll(address,address)": {
        "details": "Tells whether an operator is approved by a given owner.",
        "params": {
          "operator": "operator address which you want to query the approval of",
          "owner": "owner address which you want to query the approval of"
        },
        "return": "bool whether the given operator is approved by the given owner"
      },
      "mint(address,uint256)": {
        "details": "Function to mint tokens.",
        "params": {
          "to": "The address that will receive the minted token.",
          "tokenId": "The token id to mint."
        },
        "return": "A boolean that indicates if the operation was successful."
      },
      "mintWithTokenURI(address,uint256,string)": {
        "details": "Function to mint tokens.",
        "params": {
          "to": "The address that will receive the minted tokens.",
          "tokenId": "The token id to mint.",
          "tokenURI": "The token URI of the minted token."
        },
        "return": "A boolean that indicates if the operation was successful."
      },
      "name()": {
        "details": "Gets the token name.",
        "return": "string representing the token name"
      },
      "ownerOf(uint256)": {
        "details": "Gets the owner of the specified token ID.",
        "params": {
          "tokenId": "uint256 ID of the token to query the owner of"
        },
        "return": "address currently marked as the owner of the given token ID"
      },
      "safeMint(address,uint256)": {
        "details": "Function to safely mint tokens.",
        "params": {
          "to": "The address that will receive the minted token.",
          "tokenId": "The token id to mint."
        },
        "return": "A boolean that indicates if the operation was successful."
      },
      "safeMint(address,uint256,bytes)": {
        "details": "Function to safely mint tokens.",
        "params": {
          "_data": "bytes data to send along with a safe transfer check.",
          "to": "The address that will receive the minted token.",
          "tokenId": "The token id to mint."
        },
        "return": "A boolean that indicates if the operation was successful."
      },
      "safeTransferFrom(address,address,uint256)": {
        "details": "Safely transfers the ownership of a given token ID to another address If the target address is a contract, it must implement {IERC721Receiver-onERC721Received}, which is called upon a safe transfer, and return the magic value `bytes4(keccak256(\"onERC721Received(address,address,uint256,bytes)\"))`; otherwise, the transfer is reverted. Requires the msg.sender to be the owner, approved, or operator",
        "params": {
          "from": "current owner of the token",
          "to": "address to receive the ownership of the given token ID",
          "tokenId": "uint256 ID of the token to be transferred"
        }
      },
      "safeTransferFrom(address,address,uint256,bytes)": {
        "details": "Safely transfers the ownership of a given token ID to another address If the target address is a contract, it must implement {IERC721Receiver-onERC721Received}, which is called upon a safe transfer, and return the magic value `bytes4(keccak256(\"onERC721Received(address,address,uint256,bytes)\"))`; otherwise, the transfer is reverted. Requires the _msgSender() to be the owner, approved, or operator",
        "params": {
          "_data": "bytes data to send along with a safe transfer check",
          "from": "current owner of the token",
          "to": "address to receive the ownership of the given token ID",
          "tokenId": "uint256 ID of the token to be transferred"
        }
      },
      "setApprovalForAll(address,bool)": {
        "details": "Sets or unsets the approval of a given operator An operator is allowed to transfer all tokens of the sender on their behalf.",
        "params": {
          "approved": "representing the status of the approval to be set",
          "to": "operator address to set the approval"
        }
      },
      "supportsInterface(bytes4)": {
        "details": "See {IERC165-supportsInterface}.     * Time complexity O(1), guaranteed to always use less than 30 000 gas."
      },
      "symbol()": {
        "details": "Gets the token symbol.",
        "return": "string representing the token symbol"
      },
      "tokenByIndex(uint256)": {
        "details": "Gets the token ID at a given index of all the tokens in this contract Reverts if the index is greater or equal to the total number of tokens.",
        "params": {
          "index": "uint256 representing the index to be accessed of the tokens list"
        },
        "return": "uint256 token ID at the given index of the tokens list"
      },
      "tokenOfOwnerByIndex(address,uint256)": {
        "details": "Gets the token ID at a given index of the tokens list of the requested owner.",
        "params": {
          "index": "uint256 representing the index to be accessed of the requested tokens list",
          "owner": "address owning the tokens list to be accessed"
        },
        "return": "uint256 token ID at the given index of the tokens list owned by the requested address"
      },
      "tokenURI(uint256)": {
        "details": "Returns the URI for a given token ID. May return an empty string.     * If the token's URI is non-empty and a base URI was set (via {_setBaseURI}), it will be added to the token ID's URI as a prefix.     * Reverts if the token ID does not exist."
      },
      "totalSupply()": {
        "details": "Gets the total amount of tokens stored by the contract.",
        "return": "uint256 representing the total amount of tokens"
      },
      "transferFrom(address,address,uint256)": {
        "details": "Transfers the ownership of a given token ID to another address. Usage of this method is discouraged, use {safeTransferFrom} whenever possible. Requires the msg.sender to be the owner, approved, or operator.",
        "params": {
          "from": "current owner of the token",
          "to": "address to receive the ownership of the given token ID",
          "tokenId": "uint256 ID of the token to be transferred"
        }
      }
    },
    "title": "ERC721FullMock This mock just provides public functions for setting metadata URI, getting all tokens of an owner, checking token existence, removal of a token from an address"
  },
  "userdoc": {
    "methods": {}
  }
}