{
  "contractName": "IncreasingPriceCrowdsaleImpl",
  "abi": [
    {
      "inputs": [
        {
          "internalType": "uint256",
          "name": "openingTime",
          "type": "uint256"
        },
        {
          "internalType": "uint256",
          "name": "closingTime",
          "type": "uint256"
        },
        {
          "internalType": "address payable",
          "name": "wallet",
          "type": "address"
        },
        {
          "internalType": "contract IERC20",
          "name": "token",
          "type": "address"
        },
        {
          "internalType": "uint256",
          "name": "initialRate",
          "type": "uint256"
        },
        {
          "internalType": "uint256",
          "name": "finalRate",
          "type": "uint256"
        }
      ],
      "payable": false,
      "stateMutability": "nonpayable",
      "type": "constructor"
    },
    {
      "anonymous": false,
      "inputs": [
        {
          "indexed": false,
          "internalType": "uint256",
          "name": "prevClosingTime",
          "type": "uint256"
        },
        {
          "indexed": false,
          "internalType": "uint256",
          "name": "newClosingTime",
          "type": "uint256"
        }
      ],
      "name": "TimedCrowdsaleExtended",
      "type": "event"
    },
    {
      "anonymous": false,
      "inputs": [
        {
          "indexed": true,
          "internalType": "address",
          "name": "purchaser",
          "type": "address"
        },
        {
          "indexed": true,
          "internalType": "address",
          "name": "beneficiary",
          "type": "address"
        },
        {
          "indexed": false,
          "internalType": "uint256",
          "name": "value",
          "type": "uint256"
        },
        {
          "indexed": false,
          "internalType": "uint256",
          "name": "amount",
          "type": "uint256"
        }
      ],
      "name": "TokensPurchased",
      "type": "event"
    },
    {
      "payable": true,
      "stateMutability": "payable",
      "type": "fallback"
    },
    {
      "constant": false,
      "inputs": [
        {
          "internalType": "address",
          "name": "beneficiary",
          "type": "address"
        }
      ],
      "name": "buyTokens",
      "outputs": [],
      "payable": true,
      "stateMutability": "payable",
      "type": "function"
    },
    {
      "constant": true,
      "inputs": [],
      "name": "closingTime",
      "outputs": [
        {
          "internalType": "uint256",
          "name": "",
          "type": "uint256"
        }
      ],
      "payable": false,
      "stateMutability": "view",
      "type": "function"
    },
    {
      "constant": true,
      "inputs": [],
      "name": "finalRate",
      "outputs": [
        {
          "internalType": "uint256",
          "name": "",
          "type": "uint256"
        }
      ],
      "payable": false,
      "stateMutability": "view",
      "type": "function"
    },
    {
      "constant": true,
      "inputs": [],
      "name": "getCurrentRate",
      "outputs": [
        {
          "internalType": "uint256",
          "name": "",
          "type": "uint256"
        }
      ],
      "payable": false,
      "stateMutability": "view",
      "type": "function"
    },
    {
      "constant": true,
      "inputs": [],
      "name": "hasClosed",
      "outputs": [
        {
          "internalType": "bool",
          "name": "",
          "type": "bool"
        }
      ],
      "payable": false,
      "stateMutability": "view",
      "type": "function"
    },
    {
      "constant": true,
      "inputs": [],
      "name": "initialRate",
      "outputs": [
        {
          "internalType": "uint256",
          "name": "",
          "type": "uint256"
        }
      ],
      "payable": false,
      "stateMutability": "view",
      "type": "function"
    },
    {
      "constant": true,
      "inputs": [],
      "name": "isOpen",
      "outputs": [
        {
          "internalType": "bool",
          "name": "",
          "type": "bool"
        }
      ],
      "payable": false,
      "stateMutability": "view",
      "type": "function"
    },
    {
      "constant": true,
      "inputs": [],
      "name": "openingTime",
      "outputs": [
        {
          "internalType": "uint256",
          "name": "",
          "type": "uint256"
        }
      ],
      "payable": false,
      "stateMutability": "view",
      "type": "function"
    },
    {
      "constant": true,
      "inputs": [],
      "name": "rate",
      "outputs": [
        {
          "internalType": "uint256",
          "name": "",
          "type": "uint256"
        }
      ],
      "payable": false,
      "stateMutability": "view",
      "type": "function"
    },
    {
      "constant": true,
      "inputs": [],
      "name": "token",
      "outputs": [
        {
          "internalType": "contract IERC20",
          "name": "",
          "type": "address"
        }
      ],
      "payable": false,
      "stateMutability": "view",
      "type": "function"
    },
    {
      "constant": true,
      "inputs": [],
      "name": "wallet",
      "outputs": [
        {
          "internalType": "address payable",
          "name": "",
          "type": "address"
        }
      ],
      "payable": false,
      "stateMutability": "view",
      "type": "function"
    },
    {
      "constant": true,
      "inputs": [],
      "name": "weiRaised",
      "outputs": [
        {
          "internalType": "uint256",
          "name": "",
          "type": "uint256"
        }
      ],
      "payable": false,
      "stateMutability": "view",
      "type": "function"
    }
  ],
  "bytecode": "0x608060405234801561001057600080fd5b506040516200159838038062001598833981810160405260c081101561003557600080fd5b81019080805190602001909291908051906020019092919080519060200190929190805190602001909291908051906020019092919080519060200190929190505050818187878588886001600081905550600083116100fd576040517f08c379a00000000000000000000000000000000000000000000000000000000081526004018080602001828103825260148152602001807f43726f776473616c653a2072617465206973203000000000000000000000000081525060200191505060405180910390fd5b600073ffffffffffffffffffffffffffffffffffffffff168273ffffffffffffffffffffffffffffffffffffffff161415610184576040517f08c379a0000000000000000000000000000000000000000000000000000000008152600401808060200182810382526025815260200180620015736025913960400191505060405180910390fd5b600073ffffffffffffffffffffffffffffffffffffffff168173ffffffffffffffffffffffffffffffffffffffff16141561020b576040517f08c379a00000000000000000000000000000000000000000000000000000000081526004018080602001828103825260248152602001806200154f6024913960400191505060405180910390fd5b8260038190555081600260006101000a81548173ffffffffffffffffffffffffffffffffffffffff021916908373ffffffffffffffffffffffffffffffffffffffff16021790555080600160006101000a81548173ffffffffffffffffffffffffffffffffffffffff021916908373ffffffffffffffffffffffffffffffffffffffff160217905550505050428210156102f1576040517f08c379a0000000000000000000000000000000000000000000000000000000008152600401808060200182810382526033815260200180620014776033913960400191505060405180910390fd5b81811161034a576040517f08c379a0000000000000000000000000000000000000000000000000000000008152600401808060200182810382526037815260200180620014ef6037913960400191505060405180910390fd5b81600581905550806006819055505050600081116103b4576040517f08c379a0000000000000000000000000000000000000000000000000000000008152600401808060200182810382526029815260200180620015266029913960400191505060405180910390fd5b80821161040d576040517f08c379a0000000000000000000000000000000000000000000000000000000008152600401808060200182810382526045815260200180620014aa6045913960600191505060405180910390fd5b8160078190555080600881905550505050505050505061104480620004336000396000f3fe6080604052600436106100a75760003560e01c8063521eb27311610064578063521eb273146101c35780639e51051f1461021a578063b7a8807c14610245578063ec8ac4d814610270578063f7fb07b0146102b4578063fc0c546a146102df576100a7565b80631515bc2b146100b957806321106109146100e85780632c4e722e146101135780634042b66f1461013e57806347535d7b146101695780634b6753bc14610198575b6100b76100b2610336565b61033e565b005b3480156100c557600080fd5b506100ce6104aa565b604051808215151515815260200191505060405180910390f35b3480156100f457600080fd5b506100fd6104b6565b6040518082815260200191505060405180910390f35b34801561011f57600080fd5b506101286104c0565b6040518082815260200191505060405180910390f35b34801561014a57600080fd5b50610153610513565b6040518082815260200191505060405180910390f35b34801561017557600080fd5b5061017e61051d565b604051808215151515815260200191505060405180910390f35b3480156101a457600080fd5b506101ad610538565b6040518082815260200191505060405180910390f35b3480156101cf57600080fd5b506101d8610542565b604051808273ffffffffffffffffffffffffffffffffffffffff1673ffffffffffffffffffffffffffffffffffffffff16815260200191505060405180910390f35b34801561022657600080fd5b5061022f61056c565b6040518082815260200191505060405180910390f35b34801561025157600080fd5b5061025a610576565b6040518082815260200191505060405180910390f35b6102b26004803603602081101561028657600080fd5b81019080803573ffffffffffffffffffffffffffffffffffffffff16906020019092919050505061033e565b005b3480156102c057600080fd5b506102c9610580565b6040518082815260200191505060405180910390f35b3480156102eb57600080fd5b506102f4610637565b604051808273ffffffffffffffffffffffffffffffffffffffff1673ffffffffffffffffffffffffffffffffffffffff16815260200191505060405180910390f35b600033905090565b6001600080828254019250508190555060008054905060003490506103638382610661565b600061036e826106e9565b90506103858260045461071190919063ffffffff16565b6004819055506103958482610799565b8373ffffffffffffffffffffffffffffffffffffffff166103b4610336565b73ffffffffffffffffffffffffffffffffffffffff167f6faf93231a456e552dbc9961f58d9713ee4f2e69d15f1975b050ef0911053a7b8484604051808381526020018281526020019250505060405180910390a361041384836107a7565b61041b6107ab565b6104258483610816565b5050600054811461049e576040517f08c379a000000000000000000000000000000000000000000000000000000000815260040180806020018281038252601f8152602001807f5265656e7472616e637947756172643a207265656e7472616e742063616c6c0081525060200191505060405180910390fd5b60016000819055505050565b60006006544211905090565b6000600854905090565b60006040517f08c379a0000000000000000000000000000000000000000000000000000000008152600401808060200182810382526027815260200180610f746027913960400191505060405180910390fd5b6000600454905090565b6000600554421015801561053357506006544211155b905090565b6000600654905090565b6000600260009054906101000a900473ffffffffffffffffffffffffffffffffffffffff16905090565b6000600754905090565b6000600554905090565b600061058a61051d565b6105975760009050610634565b60006105b36105a4610576565b4261081a90919063ffffffff16565b905060006105d86105c2610576565b6105ca610538565b61081a90919063ffffffff16565b905060006105f360085460075461081a90919063ffffffff16565b905061062e61061d8361060f848761086490919063ffffffff16565b6108ea90919063ffffffff16565b60075461081a90919063ffffffff16565b93505050505b90565b6000600160009054906101000a900473ffffffffffffffffffffffffffffffffffffffff16905090565b61066961051d565b6106db576040517f08c379a00000000000000000000000000000000000000000000000000000000081526004018080602001828103825260188152602001807f54696d656443726f776473616c653a206e6f74206f70656e000000000000000081525060200191505060405180910390fd5b6106e58282610934565b5050565b6000806106f4610580565b9050610709838261086490919063ffffffff16565b915050919050565b60008082840190508381101561078f576040517f08c379a000000000000000000000000000000000000000000000000000000000815260040180806020018281038252601b8152602001807f536166654d6174683a206164646974696f6e206f766572666c6f77000000000081525060200191505060405180910390fd5b8091505092915050565b6107a38282610a35565b5050565b5050565b600260009054906101000a900473ffffffffffffffffffffffffffffffffffffffff1673ffffffffffffffffffffffffffffffffffffffff166108fc349081150290604051600060405180830381858888f19350505050158015610813573d6000803e3d6000fd5b50565b5050565b600061085c83836040518060400160405280601e81526020017f536166654d6174683a207375627472616374696f6e206f766572666c6f770000815250610a86565b905092915050565b60008083141561087757600090506108e4565b600082840290508284828161088857fe5b04146108df576040517f08c379a0000000000000000000000000000000000000000000000000000000008152600401808060200182810382526021815260200180610f9b6021913960400191505060405180910390fd5b809150505b92915050565b600061092c83836040518060400160405280601a81526020017f536166654d6174683a206469766973696f6e206279207a65726f000000000000815250610b46565b905092915050565b600073ffffffffffffffffffffffffffffffffffffffff168273ffffffffffffffffffffffffffffffffffffffff1614156109ba576040517f08c379a000000000000000000000000000000000000000000000000000000000815260040180806020018281038252602a815260200180610fbc602a913960400191505060405180910390fd5b6000811415610a31576040517f08c379a00000000000000000000000000000000000000000000000000000000081526004018080602001828103825260198152602001807f43726f776473616c653a20776569416d6f756e7420697320300000000000000081525060200191505060405180910390fd5b5050565b610a828282600160009054906101000a900473ffffffffffffffffffffffffffffffffffffffff1673ffffffffffffffffffffffffffffffffffffffff16610c0c9092919063ffffffff16565b5050565b6000838311158290610b33576040517f08c379a00000000000000000000000000000000000000000000000000000000081526004018080602001828103825283818151815260200191508051906020019080838360005b83811015610af8578082015181840152602081019050610add565b50505050905090810190601f168015610b255780820380516001836020036101000a031916815260200191505b509250505060405180910390fd5b5060008385039050809150509392505050565b60008083118290610bf2576040517f08c379a00000000000000000000000000000000000000000000000000000000081526004018080602001828103825283818151815260200191508051906020019080838360005b83811015610bb7578082015181840152602081019050610b9c565b50505050905090810190601f168015610be45780820380516001836020036101000a031916815260200191505b509250505060405180910390fd5b506000838581610bfe57fe5b049050809150509392505050565b610cd8838473ffffffffffffffffffffffffffffffffffffffff1663a9059cbb905060e01b8484604051602401808373ffffffffffffffffffffffffffffffffffffffff1673ffffffffffffffffffffffffffffffffffffffff16815260200182815260200192505050604051602081830303815290604052907bffffffffffffffffffffffffffffffffffffffffffffffffffffffff19166020820180517bffffffffffffffffffffffffffffffffffffffffffffffffffffffff8381831617835250505050610cdd565b505050565b610cfc8273ffffffffffffffffffffffffffffffffffffffff16610f28565b610d6e576040517f08c379a000000000000000000000000000000000000000000000000000000000815260040180806020018281038252601f8152602001807f5361666545524332303a2063616c6c20746f206e6f6e2d636f6e74726163740081525060200191505060405180910390fd5b600060608373ffffffffffffffffffffffffffffffffffffffff16836040518082805190602001908083835b60208310610dbd5780518252602082019150602081019050602083039250610d9a565b6001836020036101000a0380198251168184511680821785525050505050509050019150506000604051808303816000865af19150503d8060008114610e1f576040519150601f19603f3d011682016040523d82523d6000602084013e610e24565b606091505b509150915081610e9c576040517f08c379a00000000000000000000000000000000000000000000000000000000081526004018080602001828103825260208152602001807f5361666545524332303a206c6f772d6c6576656c2063616c6c206661696c656481525060200191505060405180910390fd5b600081511115610f2257808060200190516020811015610ebb57600080fd5b8101908080519060200190929190505050610f21576040517f08c379a000000000000000000000000000000000000000000000000000000000815260040180806020018281038252602a815260200180610fe6602a913960400191505060405180910390fd5b5b50505050565b60008060007fc5d2460186f7233c927e7db2dcc703c0e500b653ca82273b7bfad8045d85a47060001b9050833f91506000801b8214158015610f6a5750808214155b9250505091905056fe496e6372656173696e67507269636543726f776473616c653a207261746528292063616c6c6564536166654d6174683a206d756c7469706c69636174696f6e206f766572666c6f7743726f776473616c653a2062656e656669636961727920697320746865207a65726f20616464726573735361666545524332303a204552433230206f7065726174696f6e20646964206e6f742073756363656564a265627a7a723158204c51792851b0298f33825d2f6599f4c0edaa6eeba2248a7328d31e992cb6ab9b64736f6c634300050c003254696d656443726f776473616c653a206f70656e696e672074696d65206973206265666f72652063757272656e742074696d65496e6372656173696e67507269636543726f776473616c653a20696e697469616c2072617465206973206e6f742067726561746572207468616e2066696e616c207261746554696d656443726f776473616c653a206f70656e696e672074696d65206973206e6f74206265666f726520636c6f73696e672074696d65496e6372656173696e67507269636543726f776473616c653a2066696e616c2072617465206973203043726f776473616c653a20746f6b656e20697320746865207a65726f206164647265737343726f776473616c653a2077616c6c657420697320746865207a65726f2061646472657373",
  "source": "pragma solidity ^0.5.0;\n\nimport \"../crowdsale/price/IncreasingPriceCrowdsale.sol\";\nimport \"../math/SafeMath.sol\";\n\ncontract IncreasingPriceCrowdsaleImpl is IncreasingPriceCrowdsale {\n    constructor (\n        uint256 openingTime,\n        uint256 closingTime,\n        address payable wallet,\n        IERC20 token,\n        uint256 initialRate,\n        uint256 finalRate\n    )\n        public\n        Crowdsale(initialRate, wallet, token)\n        TimedCrowdsale(openingTime, closingTime)\n        IncreasingPriceCrowdsale(initialRate, finalRate)\n    {\n        // solhint-disable-previous-line no-empty-blocks\n    }\n}\n",
  "sourcePath": "C:/Users/kev-y/OneDrive - De Vinci/ESILV/A5/Monnaies Numériques/ERC20/contracts/openzeppelin/contracts/mocks/IncreasingPriceCrowdsaleImpl.sol",
  "compiler": {
    "name": "solc",
    "version": "0.5.12+commit.7709ece9.Emscripten.clang"
  },
  "schemaVersion": "3.0.19",
  "updatedAt": "2019-11-20T11:24:44.825Z",
  "devdoc": {
    "methods": {
      "buyTokens(address)": {
        "details": "low level token purchase ***DO NOT OVERRIDE*** This function has a non-reentrancy guard, so it shouldn't be called by another `nonReentrant` function.",
        "params": {
          "beneficiary": "Recipient of the token purchase"
        }
      },
      "closingTime()": {
        "return": "the crowdsale closing time."
      },
      "finalRate()": {
        "return": "the final rate of the crowdsale."
      },
      "getCurrentRate()": {
        "details": "Returns the rate of tokens per wei at the present time. Note that, as price _increases_ with time, the rate _decreases_.",
        "return": "The number of tokens a buyer gets per wei at a given time"
      },
      "hasClosed()": {
        "details": "Checks whether the period in which the crowdsale is open has already elapsed.",
        "return": "Whether crowdsale period has elapsed"
      },
      "initialRate()": {
        "return": "the initial rate of the crowdsale."
      },
      "isOpen()": {
        "return": "true if the crowdsale is open, false otherwise."
      },
      "openingTime()": {
        "return": "the crowdsale opening time."
      },
      "token()": {
        "return": "the token being sold."
      },
      "wallet()": {
        "return": "the address where funds are collected."
      },
      "weiRaised()": {
        "return": "the amount of wei raised."
      }
    }
  },
  "userdoc": {
    "methods": {
      "rate()": {
        "notice": "The base rate function is overridden to revert, since this crowdsale doesn't use it, and all calls to it are a mistake."
      }
    }
  }
}